:100000000C942A000C94C3000C94C3000C94C300FD
:100010000C94C3000C94C3000C94C3000C94C30054
:100020000C94C3000C94C3000C94C3000C94C30044
:100030000C94C3000C94C3000C94C3000C94C30034
:100040000C94C3000C94C3000C94C3000C94C30024
:100050000C94C30011241FBECFE5D8E0DEBFCDBF96
:10006000E4E5F0E040E017C0B591A5913591259108
:10007000059107FD0CC095918591EF01F92FE82FAF
:1000800005900D92A217B307D9F7FE0104C01D9287
:10009000A217B307E1F7E435F40731F70E945400E3
:0800A0000C94B800F894FFCFA6
:1000A8000E94AA0087E00E947B002FEF87EA91E672
:1000B800215080409040E1F700C0000085E00E9498
:1000C8007B002FEF87EA91E6215080409040E1F7CE
:1000D80000C000008AE00E947B002FEF87EA91E6CB
:0E00E800215080409040E1F700C00000DBCFC7
:1000F60046B557B5282F249FC001259F900D112482
:100106009C013695279536952795ABE7B4E10E9475
:100116009B009695879501979BBD8ABD8FEF9DE3C2
:1001260029E4815090402040E1F700C00000089586
:10013600A29FB001B39FC001A39F700D811D112422
:0E014600911DB29F700D811D1124911D089511
:1001540081B3806281BB82E88FBD8AE18EBD1DBC04
:0C0164001CBC8FE19EE497BD86BD089591
:10017000EC010E94C8000E94C700CE010E94C90085
:06018000CE010E94C50043
:040186000C940000D5
:04018A000E9452007D
:02018E000895D2
:020190000895D0
:020192000895CE
:00000001FF
