:100000000C942D000C9431010C9431010C943101AD
:100010000C9431010C9431010C9431010C94310198
:100020000C9431010C9431010C9431010C94310188
:100030000C9431010C9431010C9431010C94310178
:100040000C9431010C9431010C9431010C94310168
:100050000C94310100600061800011241FBECFE5C7
:10006000D8E0DEBFCDBFE4E5F0E040E017C0B591D9
:10007000A59135912591059107FD0CC0959185912C
:10008000EF01F92FE82F05900D92A217B307D9F7CA
:10009000FE0104C01D92A217B307E1F7E935F4078A
:0E00A00031F70E94ED000C940E01F894FFCF92
:1000AE00442319F04130C9F10895813091F028F0C0
:1000BE008230D9F0833029F108952AB381E090E09F
:1000CE0002C0880F991F6A95E2F7809582238ABB3A
:1000DE00089527B381E090E002C0880F991F6A95BA
:1000EE00E2F78095822387BB089524B381E090E0E8
:1000FE0002C0880F991F6A95E2F78095822384BB10
:10010E00089521B381E090E002C0880F991F6A958F
:10011E00E2F78095822381BB0895813089F028F023
:10012E008230C9F0833011F108952AB381E090E056
:10013E0002C0880F991F6A95E2F7822B8ABB089539
:10014E0027B381E090E002C0880F991F6A95E2F70D
:10015E00822B87BB089524B381E090E002C0880F04
:10016E00991F6A95E2F7822B84BB089521B381E033
:10017E0090E002C0880F991F6A95E2F7822B81BB2F
:02018E000895D2
:10019000882319F0813089F0089541E060E082E021
:1001A0000E94570041E061E082E00E94570041E078
:1001B00062E082E00E945700089541E062E082E040
:1001C0000E94570041E062E082E00E94570041E057
:0A01D00062E082E00E9457000895EB
:1001DA0080E00E94C8000E9422010E94280188B380
:1001EA0040E060E00E94570060E470E080E00E9416
:0801FA002E0180936000FFCF8D
:10020200262FE199FECF9FBB8EBB2DBB0FB6F89474
:0A021200E29AE19A0FBE01960895EA
:10021C00EC010E9436010E943501CE010E9437018B
:06022C00CE010E94330127
:10023200CB01E199FECF9FBB8EBBE09A99278DB38C
:0202420008951D
:0C02440060E080E490E00E940101089559
:0C02500041E060E080E00E94570008954B
:06025C000E941901089543
:040262000C940000F8
:040266000E9455009D
:02026A000895F5
:02026C000895F3
:02026E000895F1
:00000001FF
