:100000000C9438000C94F7040C9458060C94580681
:100010000C9458060C9458060C9458060C945806E8
:100020000C9458060C9458060C9458060C945806D8
:100030000C9458060C9458060C9458060C945806C8
:100040000C9458060C9458060C9458060C945806B8
:100050000C945806BA03BE03C303C803CD03D203EE
:10006000D703DC0300600062000CBE006200668003
:1000700011241FBECFE5D8E0DEBFCDBFE4E6F0E03F
:1000800040E017C0B591A59135912591059107FDE7
:100090000CC095918591EF01F92FE82F05900D92F5
:1000A000A217B307D9F7FE0104C01D92A217B30728
:1000B000E1F7E037F40731F70E94A1020C94F20552
:0400C000F894FFCFE2
:1000C4000F9331B3326031BB31B33E7F31BB3AB1B0
:1000D40038613AB9662319F0613029F007C030B5A8
:1000E4003F7730BD03C030B5306830BD2230F9F001
:1000F40028F4222341F0213081F036C0233009F165
:10010400243049F131C02AB12B7F2AB920B52B7F85
:1001140020BD20B52D7F20BD27C02AB12B7F2AB951
:1001240020B52B7F20BD20B5226020BD1DC02AB183
:100134002B7F2AB920B5246020BD20B52D7F20BD9A
:1001440013C02AB12B7F2AB920B5246020BD20B565
:10015400226020BD09C02AB124602AB920B52460D8
:1001640020BD20B5226020BD413059F018F0423046
:1001740079F014C020B52F7D20BD20B52F7E20BD81
:100184000DC020B5206220BD20B52F7E20BD06C045
:1001940020B5206220BD20B5206120BD002319F0C8
:1001A400013029F007C020B5277F20BD03C020B54A
:1001B400286020BD9C0122953295307F3227207F14
:1001C400322740E050E060E071E782E090E00E9476
:1001D40061052150310929B930BD81E00F9108959D
:1001E400442319F04130C9F10895813091F028F089
:1001F4008230D9F0833029F108952AB381E090E068
:1002040002C0880F991F6A95E2F7809582238ABB02
:10021400089527B381E090E002C0880F991F6A9582
:10022400E2F78095822387BB089524B381E090E0B0
:1002340002C0880F991F6A95E2F78095822384BBD8
:10024400089521B381E090E002C0880F991F6A9558
:10025400E2F78095822381BB0895813089F028F0EC
:100264008230C9F0833011F108952AB381E090E01F
:1002740002C0880F991F6A95E2F7822B8ABB089502
:1002840027B381E090E002C0880F991F6A95E2F7D6
:10029400822B87BB089524B381E090E002C0880FCD
:1002A400991F6A95E2F7822B84BB089521B381E0FC
:1002B40090E002C0880F991F6A95E2F7822B81BBF8
:0202C40008959B
:1002C600442319F04130C9F10895813091F028F0A6
:1002D6008230D9F0833029F108952BB381E090E084
:1002E60002C0880F991F6A95E2F7809582238BBB1F
:1002F600089528B381E090E002C0880F991F6A959F
:10030600E2F78095822388BB089525B381E090E0CB
:1003160002C0880F991F6A95E2F78095822385BBF4
:10032600089522B381E090E002C0880F991F6A9574
:10033600E2F78095822382BB0895813089F028F008
:100346008230C9F0833011F108952BB381E090E03B
:1003560002C0880F991F6A95E2F7822B8BBB08951E
:1003660028B381E090E002C0880F991F6A95E2F7F2
:10037600822B88BB089525B381E090E002C0880FE8
:10038600991F6A95E2F7822B85BB089522B381E017
:1003960090E002C0880F991F6A95E2F7822B82BB14
:0203A6000895B8
:1003A8000FC00E941C0638F00E94230620F09523F7
:1003B80011F00C9436060C94550611240C9416066C
:1003C8000E94B30470F3959FC1F3950F50E0551F39
:1003D800629FF001729FBB27F00DB11D639FAA2792
:1003E800F00DB11DAA1F649F6627B00DA11D661FE1
:1003F800829F2227B00DA11D621F739FB00DA11D02
:10040800621F839FA00D611D221F749F3327A00DBB
:10041800611D231F849F600D211D822F762F6A2F57
:1004280011249F5750409AF0F1F088234AF0EE0FBC
:10043800FF1FBB1F661F771F881F91505040A9F7E9
:100448009E3F510580F00C9436060C9416065F3FCB
:10045800E4F3983ED4F3869577956795B795F79525
:10046800E7959F5FC1F7FE2B880F911D969587959D
:0404780097F9089553
:10047C00CF92DF92EF92FF920F931F93CF93DF9364
:10048C00EC01F901908191114DC0142F062FBE0182
:10049C0080E090E00E9435036B017C0120E030E0AD
:1004AC0040EA51E40E944706181624F0802F0E945F
:1004BC006A0438C020E030E040EA51E4C701B601DC
:1004CC000E944C06181614F520E030E040E252E48D
:1004DC00C701B6010E9447061816C4F060E0802FD1
:1004EC000E94ED0281E01A3F08F480E090E08C9FBE
:1004FC00B0018D9F700D9C9F700D1124660F771F9E
:10050C00660F771F802F0E948C050CC0A9972A9725
:10051C0048F460E0802F0E94ED0260EA70E0802FCA
:10052C000E948C05DF91CF911F910F91FF90EF905E
:06053C00DF90CF9008954E
:100542000F93CF93DF9380E00E9442040E94E7055D
:100552000E94300660E085E00E940E068BB340E008
:1005620060E00E94F20000E023E040E061E080E60B
:1005720090E00E946200882349F182E00E94160402
:100582000E942A06811103C060E00E94ED028FE101
:100592009EE40197F1F700C000000E943205EC01D1
:1005A20064E670E00E94780581E690E00E944A05C8
:1005B200809162008F5F8093620025E630E0409177
:1005C200610060E0CE010E941805E7CF80E090E074
:0805D200DF91CF910F91089514
:1005DA00CF93C62F882319F0813009F13FC041E03B
:1005EA0063E081E00E946301CC2319F0C13061F01D
:1005FA0035C041E061E082E00E94630140E062E0D0
:10060A0082E00E9463012AC040E061E082E00E9429
:10061A00630141E062E082E00E9463011FC041E0A1
:10062A0062E081E00E946301CC2319F0C13061F0DD
:10063A0015C041E062E082E00E94630140E062E0AE
:10064A0082E00E9463010AC040E062E082E00E9408
:10065A00630141E062E082E00E946301CF91089564
:10066A00E89409C097FB3EF4909580957095619542
:10067A007F4F8F4F9F4F9923A9F0F92F96E9BB27F8
:10068A009395F695879577956795B795F111F8CF74
:10069A00FAF4BB0F11F460FF1BC06F5F7F4F8F4FDF
:1006AA009F4F16C0882311F096E911C0772321F0D5
:1006BA009EE8872F762F05C0662371F096E8862F6D
:1006CA0070E060E02AF09A95660F771F881FDAF7C4
:0A06DA00880F9695879597F908950B
:1006E400CF92DF92EF92FF92CF93DF93EB01BC01A5
:1006F40080E090E00E9435036B017C0120E030E053
:1007040048E452E40E944706882354F488818823ED
:1007140039F0188260E080E690E00E94CE0514C0B3
:1007240020E030E048E452E4C701B6010E944C06E0
:10073400882354F08881813039F081E0888361E036
:1007440080E690E00E94CE05DF91CF91FF90EF907C
:06075400DF90CF90089534
:10075A00E82F84B195B18E2F90E08830910550F53D
:10076A00FC01E65DFF4F0C943C0687B1887F87B990
:10077A0021C087B1887F816087B91CC087B1887F13
:10078A00826087B917C087B1887F836087B912C032
:10079A0087B1887F846087B90DC087B1887F8560FB
:1007AA0087B908C087B1887F866087B903C087B1D7
:1007BA00876087B986B1806486B93699FECF84B1DD
:0407CA0095B1089548
:1007CE000E94BB0488F09F5798F0B92F9927B75114
:1007DE00B0F0E1F0660F771F881F991F1AF0BA95D7
:1007EE00C9F714C0B13091F00E941506B1E008951A
:1007FE000C941506672F782F8827B85F39F0B93F0C
:10080E00CCF3869577956795B395D9F73EF4909589
:0E081E008095709561957F4F8F4F9F4F089585
:10082C0091B39B7F91BBF894813069F028F08230B2
:10083C00C1F0833079F01BC085B78D7F85BF85B73C
:10084C008E7F85BF14C085B78D7F85BF85B78160CE
:10085C0085BF0DC085B7826085BF85B78E7F85BF8C
:10086C0006C085B7826085BF85B7816085BF8BB7B1
:08087C0080648BBF789408959D
:10088400882319F08130A1F0089541E063E081E00C
:100894000E94F20041E061E082E00E94F20041E047
:1008A40062E082E00E94F20012BE8BE683BF0895EC
:1008B40041E062E081E00E94F20041E062E082E017
:1008C4000E94F20041E062E082E00E94F20008959A
:1008D400882319F0813089F0089540E063E081E0D5
:1008E4000E94630140E061E082E00E94630140E015
:1008F40062E082E00E946301089540E062E081E0EA
:100904000E94630140E062E082E00E94630140E0F3
:0A09140062E082E00E946301089592
:10091E00990F0008550FAA0BE0E8FEEF1616170602
:10092E00E807F907C0F012161306E407F50798F06A
:10093E00621B730B840B950B39F40A2661F0232B83
:10094E00242B252B21F408950A2609F4A140A695FF
:08095E008FEF811D811D08953A
:1009660057FD9058440F551F59F05F3F71F047955A
:10097600880F97FB991F61F09F3F79F0879508953F
:10098600121613061406551FF2CF4695F1DF08C05E
:10099600161617061806991FF1CF8695710561057B
:0409A6000894089514
:1009AA00A1E21A2EAA1BBB1BFD010DC0AA1FBB1F69
:1009BA00EE1FFF1FA217B307E407F50720F0A21BDB
:1009CA00B30BE40BF50B661F771F881F991F1A9448
:1009DA0069F760957095809590959B01AC01BD0172
:0409EA00CF0108959C
:1009EE001F920F920FB60F9211242F938F939F93F6
:1009FE00809163008F5F8093630081E08093640039
:100A0E002FE788E391E0215080409040E1F700C04D
:100A1E0000009F918F912F910F900FBE0F901F90FE
:020A2E00189519
:100A3000EF92FF920F931F93CF93DF93EC01F62E6B
:100A4000E42E8901B9010E94720398014E2D6F2D89
:100A5000CE010E943E02DF91CF911F910F91FF9036
:040A6000EF90089576
:100A640080E00E94AD03BC0180E090E00E94350369
:100A740020E030E04AEF53E40E94510620E030E0E9
:100A840040E85AE30E9451060E94E703CB0108950F
:100A94000F931F93CF93DF930F92CDB7DEB78C01E3
:100AA400CE0101960E94DB05813019F48981F80199
:0E0AB40080830F90DF91CF911F910F910895D5
:100AC200052E97FB1EF400940E94060657FD07D0E0
:100AD2000E94D50407FC03D04EF40C9406065095F0
:0E0AE2004095309521953F4F4F4F5F4F08953F
:100AF0009C01295231092A30310548F4FB0120813B
:100B0000213029F48FEF90E00E94C0050895FB0189
:080B100010820E94C005089547
:100B1800882319F0813039F0089576956795769590
:100B280067956CBF089576956795769567957BBDB3
:040B38006ABD0895F5
:100B3C00092E0394000C11F4882352F0BB0F40F4DF
:100B4C00BF2B11F460FF04C06F5F7F4F8F4F9F4F1F
:020B5C000895FA
:100B5E00262FE199FECF9FBB8EBBE09A01970DB277
:100B6E00021631F02DBB0FB6F894E29AE19A0FBE41
:020B7E000895D8
:100B8000CF93DF93D82F892F0E944206C82F8D2F35
:0C0B90000E9442068C2BDF91CF9108954B
:100B9C00262FE199FECF9FBB8EBB2DBB0FB6F894D1
:0A0BAC00E29AE19A0FBE0196089547
:100BB600FC0190E001C09F5F5F9902C09B3FD8F3A4
:080BC6008CB1808381E00895E9
:100BCE0060E080E690E00E94AF0560E080E690E095
:060BDE000E94AF0508951E
:100BE400EC010E945D060E945C06CE010E945E0636
:060BF400CE010E945A062A
:100BFA00CB01E199FECF9FBB8EBBE09A99278DB3BB
:020C0A0008954B
:100C0C0090958095709561957F4F8F4F9F4F08956C
:0E0C1C0087B1806487B986B1876A86B908956A
:0E0C2A00E894BB2766277727CB0197F908953A
:0E0C380000240A9416161706180609060895D9
:0E0C460000240A9412161306140605060895DB
:0C0C540060E670E080E80E94FD05089555
:0C0C600041E060E080E00E94F200089596
:0C0C6C0097F99F6780E870E060E0089551
:0C0C7800EE0FFF1F0590F491E02D099491
:0A0C84008CB95E9BFECF81E008955D
:0A0C8E000E948F0408F481E008952D
:0A0C98000E948F0408F48FEF089506
:080CA2000E94D4010C949E0590
:060CAA009FEF80EC0895AD
:040CB0000C940000A0
:040CB4000E9460003A
:020CB80008959D
:020CBA0008959B
:020CBC00089599
:010CBE0040F5
:010CBF000133
:00000001FF
