:100000000C942A000C94FD010C94FD010C94FD014C
:100010000C94FD010C94FD010C94FD010C94FD0168
:100020000C94FD010C94FD010C94FD010C94FD0158
:100030000C94FD010C94FD010C94FD010C94FD0148
:100040000C94FD010C94FD010C94FD010C94FD0138
:100050000C94FD0111241FBECFE5D8E0DEBFCDBF5B
:10006000E4E5F0E040E017C0B591A5913591259108
:10007000059107FD0CC095918591EF01F92FE82FAF
:1000800005900D92A217B307D9F7FE0104C01D9287
:10009000A217B307E1F7E435F40731F70E947E01B8
:0800A0000C94F201F894FFCF6B
:1000A800442319F04130C9F10895813091F028F0C6
:1000B8008230D9F0833029F108952AB381E090E0A5
:1000C80002C0880F991F6A95E2F7809582238ABB40
:1000D800089527B381E090E002C0880F991F6A95C0
:1000E800E2F78095822387BB089524B381E090E0EE
:1000F80002C0880F991F6A95E2F78095822384BB16
:10010800089521B381E090E002C0880F991F6A9595
:10011800E2F78095822381BB0895813089F028F029
:100128008230C9F0833011F108952AB381E090E05C
:1001380002C0880F991F6A95E2F7822B8ABB08953F
:1001480027B381E090E002C0880F991F6A95E2F713
:10015800822B87BB089524B381E090E002C0880F0A
:10016800991F6A95E2F7822B84BB089521B381E039
:1001780090E002C0880F991F6A95E2F7822B81BB35
:020188000895D8
:10018A00442319F04130C9F10895813091F028F0E3
:10019A008230D9F0833029F108952BB381E090E0C1
:1001AA0002C0880F991F6A95E2F7809582238BBB5C
:1001BA00089528B381E090E002C0880F991F6A95DC
:1001CA00E2F78095822388BB089525B381E090E009
:1001DA0002C0880F991F6A95E2F78095822385BB32
:1001EA00089522B381E090E002C0880F991F6A95B2
:1001FA00E2F78095822382BB0895813089F028F046
:10020A008230C9F0833011F108952BB381E090E078
:10021A0002C0880F991F6A95E2F7822B8BBB08955B
:10022A0028B381E090E002C0880F991F6A95E2F72F
:10023A00822B88BB089525B381E090E002C0880F25
:10024A00991F6A95E2F7822B85BB089522B381E054
:10025A0090E002C0880F991F6A95E2F7822B82BB51
:02026A000895F5
:10026C00CF93C62F882319F0813009F13FC041E0AC
:10027C0060E082E00E94C500CC2319F0C13061F02F
:10028C0035C041E061E082E00E94C50040E062E0E0
:10029C0082E00E94C5002AC040E061E082E00E943A
:1002AC00C50041E062E082E00E94C5001FC041E051
:1002BC0062E082E00E94C500CC2319F0C13061F0ED
:1002CC0015C041E062E082E00E94C50040E062E0BF
:1002DC0082E00E94C5000AC040E062E082E00E9419
:1002EC00C50041E062E082E00E94C500CF91089514
:1002FC0080E00E94A80160E080E00E9436012FEFB0
:10030C0087EA91E6215080409040E1F700C0000060
:10031C0080E00E94CD012FEF87EA91E621508040CA
:10032C009040E1F700C0000061E080E00E943601DF
:10033C002FEF87EA91E6215080409040E1F700C012
:04034C000000D9CF05
:10035000882319F0813089F0089541E060E082E05F
:100360000E94540041E061E082E00E94540041E0BC
:1003700062E082E00E945400089541E062E082E081
:100380000E94540041E062E082E00E94540041E09B
:0A03900062E082E00E94540008952C
:10039A00882319F0813089F0089540E060E082E016
:1003AA000E94C50040E061E082E00E94C50040E092
:1003BA0062E082E00E94C500089540E062E082E0C7
:1003CA000E94C50040E062E082E00E94C50040E071
:0A03DA0062E082E00E94C500089571
:1003E400EC010E9402020E940102CE010E9403025B
:0603F400CE010E94FF0192
:0403FA000C9400005F
:0403FE000E94520007
:0204020008955B
:02040400089559
:02040600089557
:00000001FF
