:100000000C9435000C94D3020C94D3020C94D302BC
:100010000C94D3020C94D3020C94D3020C94D3020C
:100020000C94D3020C94D3020C94D3020C94D302FC
:100030000C94D3020C94D3020C94D3020C94D302EC
:100040000C94D3020C94D3020C94D3020C94D302DC
:100050000C94D3028001830187018B018F019301EE
:1000600097019B0100600065800011241FBECFE551
:10007000D8E0DEBFCDBFE4E6F0E040E017C0B591C8
:10008000A59135912591059107FD0CC0959185911C
:10009000EF01F92FE82F05900D92A217B307D9F7BA
:1000A000FE0104C01D92A217B307E1F7E936F40779
:0E00B00031F70E94C7010C948002F894FFCF34
:1000BE00442319F04130C9F10895813091F028F0B0
:1000CE008230D9F0833029F108952AB381E090E08F
:1000DE0002C0880F991F6A95E2F7809582238ABB2A
:1000EE00089527B381E090E002C0880F991F6A95AA
:1000FE00E2F78095822387BB089524B381E090E0D8
:10010E0002C0880F991F6A95E2F78095822384BBFF
:10011E00089521B381E090E002C0880F991F6A957F
:10012E00E2F78095822381BB0895813089F028F013
:10013E008230C9F0833011F108952AB381E090E046
:10014E0002C0880F991F6A95E2F7822B8ABB089529
:10015E0027B381E090E002C0880F991F6A95E2F7FD
:10016E00822B87BB089524B381E090E002C0880FF4
:10017E00991F6A95E2F7822B84BB089521B381E023
:10018E0090E002C0880F991F6A95E2F7822B81BB1F
:02019E000895C2
:1001A0000FC00E94940238F00E949B0220F0952319
:1001B00011F00C94B5020C94D00211240C94A302FB
:1001C0000E940F0270F3959FC1F3950F50E0551FE9
:1001D000629FF001729FBB27F00DB11D639FAA279C
:1001E000F00DB11DAA1F649F6627B00DA11D661FEB
:1001F000829F2227B00DA11D621F739FB00DA11D0C
:10020000621F839FA00D611D221F749F3327A00DC5
:10021000611D231F849F600D211D822F762F6A2F61
:1002200011249F5750409AF0F1F088234AF0EE0FC6
:10023000FF1FBB1F661F771F881F91505040A9F7F3
:100240009E3F510580F00C94B5020C94A3025F3FD1
:10025000E4F3983ED4F3869577956795B795F7952F
:10026000E7959F5FC1F7FE2B880F911D96958795A7
:0402700097F908955D
:10027400E89409C097FB3EF490958095709561953C
:100284007F4F8F4F9F4F9923A9F0F92F96E9BB27F2
:100294009395F695879577956795B795F111F8CF6E
:1002A400FAF4BB0F11F460FF1BC06F5F7F4F8F4FD9
:1002B4009F4F16C0882311F096E911C0772321F0CF
:1002C4009EE8872F762F05C0662371F096E8862F67
:1002D40070E060E02AF09A95660F771F881FDAF7BE
:0A02E400880F9695879597F9089505
:1002EE0090E08830910518F5FC01E65DFF4F0C9407
:1002FE00BB0287B187B91BC087B1816087B917C0B0
:10030E0087B1826087B913C087B1836087B90FC088
:10031E0087B1846087B90BC087B1856087B907C084
:10032E0087B1866087B903C087B1876087B986B108
:06033E00806486B90895F9
:10034400882319F0813089F0089541E060E082E06B
:100354000E945F0041E061E082E00E945F0041E0B2
:1003640062E082E00E945F00089541E062E082E082
:100374000E945F0041E062E082E00E945F0041E091
:0A03840062E082E00E945F0008952D
:10038E0080E00E94A2010E94A9020E94AF0288B3DF
:10039E0040E060E00E945F0060E470E080E00E9458
:1003AE00CA02809364000E944D02609360007093B5
:1003BE006100809362009093630064E670E080E6D3
:0803CE0090E00E94CD02EFCF88
:1003D600990F0008550FAA0BE0E8FEEF1616170650
:1003E600E807F907C0F012161306E407F50798F0B8
:1003F600621B730B840B950B39F40A2661F0232BD1
:10040600242B252B21F408950A2609F4A140A6954C
:080416008FEF811D811D089587
:10041E0057FD9058440F551F59F05F3F71F04795A7
:10042E00880F97FB991F61F09F3F79F0879508958C
:10043E00121613061406551FF2CF4695F1DF08C0AB
:10044E00161617061806991FF1CF869571056105C8
:04045E000894089561
:10046200CF93DF93EB01FC016081718182819381E3
:1004720020E030E040EA51E40E94C10288234CF4BB
:100482008881882331F0188260E080E490E00E9445
:080492007302DF91CF91089580
:10049A0080E00E947701BC0180E090E00E943A016E
:1004AA0020E030E04AEF53E40E94C60220E030E048
:0A04BA0040E85AE30E94C6020895CC
:1004C400092E0394000C11F4882352F0BB0F40F45E
:1004D400BF2B11F460FF04C06F5F7F4F8F4F9F4F9E
:0204E400089579
:1004E600262FE199FECF9FBB8EBB2DBB0FB6F8948E
:0A04F600E29AE19A0FBE0196089504
:10050000EC010E94D8020E94D702CE010E94D902BB
:06051000CE010E94D5029D
:10051600CB01E199FECF9FBB8EBBE09A99278DB3A5
:02052600089536
:0E05280000240A9416161706180609060895F0
:0E05360000240A9412161306140605060895F2
:0E054400E894BB2766277727CB0197F9089527
:0C05520060E080E490E00E9473020895D5
:0C055E0041E060E080E00E945F00089532
:0C056A0097F99F6780E870E060E008955A
:0C057600EE0FFF1F0590F491E02D09949A
:0A0582000E94EB0108F481E00895E7
:08058C000E94D0000C946202F1
:060594000E948B02089595
:06059A000E9431020895E9
:0605A0009FEF80EC0895BE
:0405A6000C940000B1
:0405AA000E945D004E
:0205AE000895AE
:0205B0000895AC
:0205B2000895AA
:00000001FF
