:100000000C942A000C94AD000C94AD000C94AD003F
:100010000C94AD000C94AD000C94AD000C94AD00AC
:100020000C94AD000C94AD000C94AD000C94AD009C
:100030000C94AD000C94AD000C94AD000C94AD008C
:100040000C94AD000C94AD000C94AD000C94AD007C
:100050000C94AD0011241FBECFE5D8E0DEBFCDBFAC
:10006000E4E5F0E040E017C0B591A5913591259108
:10007000059107FD0CC095918591EF01F92FE82FAF
:1000800005900D92A217B307D9F7FE0104C01D9287
:10009000A217B307E1F7E435F40731F70E945400E3
:0800A0000C94A200F894FFCFBC
:1000A8000E94940085E491E00E947E002FEF87EA89
:1000B80091E6215080409040E1F700C0000086EBB7
:1000C80091E00E947E002FEF87EA91E62150804060
:1000D8009040E1F700C0000080E392E00E947E00BB
:1000E8002FEF87EA91E6215080409040E1F700C069
:0400F8000000D8CF5D
:1000FC0026B537B52F5F3F4F369527953695279503
:10010C00281B390B3BBD2ABD2FEF8DE399E4215001
:0C011C0080409040E1F700C00000089512
:1001280081B3806281BB1DBC1CBC83EC99E097BD88
:0C01380086BD82E88FBD8BE18EBD08956E
:10014400EC010E94B2000E94B100CE010E94B300F3
:06015400CE010E94AF0085
:04015A000C94000001
:04015E000E945200A9
:020162000895FE
:020164000895FC
:020166000895FA
:00000001FF
