:100000000C942A000C9487020C9487020C948702AB
:100010000C9487020C9487020C9487020C9487023C
:100020000C9487020C9487020C9487020C9487022C
:100030000C9487020C9487020C9487020C9487021C
:100040000C9487020C9487020C9487020C9487020C
:100050000C94870211241FBECFE5D8E0DEBFCDBFD0
:10006000E4E5F0E040E017C0B591A5913591259108
:10007000059107FD0CC095918591EF01F92FE82FAF
:1000800005900D92A217B307D9F7FE0104C01D9287
:10009000A217B307E1F7E435F40731F70E947E01B8
:0800A0000C945B02F894FFCF01
:1000A800442319F04130C9F10895813091F028F0C6
:1000B8008230D9F0833029F108952AB381E090E0A5
:1000C80002C0880F991F6A95E2F7809582238ABB40
:1000D800089527B381E090E002C0880F991F6A95C0
:1000E800E2F78095822387BB089524B381E090E0EE
:1000F80002C0880F991F6A95E2F78095822384BB16
:10010800089521B381E090E002C0880F991F6A9595
:10011800E2F78095822381BB0895813089F028F029
:100128008230C9F0833011F108952AB381E090E05C
:1001380002C0880F991F6A95E2F7822B8ABB08953F
:1001480027B381E090E002C0880F991F6A95E2F713
:10015800822B87BB089524B381E090E002C0880F0A
:10016800991F6A95E2F7822B84BB089521B381E039
:1001780090E002C0880F991F6A95E2F7822B81BB35
:020188000895D8
:10018A00442319F04130C9F10895813091F028F0E3
:10019A008230D9F0833029F108952BB381E090E0C1
:1001AA0002C0880F991F6A95E2F7809582238BBB5C
:1001BA00089528B381E090E002C0880F991F6A95DC
:1001CA00E2F78095822388BB089525B381E090E009
:1001DA0002C0880F991F6A95E2F78095822385BB32
:1001EA00089522B381E090E002C0880F991F6A95B2
:1001FA00E2F78095822382BB0895813089F028F046
:10020A008230C9F0833011F108952BB381E090E078
:10021A0002C0880F991F6A95E2F7822B8BBB08955B
:10022A0028B381E090E002C0880F991F6A95E2F72F
:10023A00822B88BB089525B381E090E002C0880F25
:10024A00991F6A95E2F7822B85BB089522B381E054
:10025A0090E002C0880F991F6A95E2F7822B82BB51
:02026A000895F5
:10026C00CF93C62F882319F0813009F13FC041E0AC
:10027C0060E082E00E94C500CC2319F0C13061F02F
:10028C0035C041E061E082E00E94C50040E062E0E0
:10029C0082E00E94C5002AC040E061E082E00E943A
:1002AC00C50041E062E082E00E94C5001FC041E051
:1002BC0062E082E00E94C500CC2319F0C13061F0ED
:1002CC0015C041E062E082E00E94C50040E062E0BF
:1002DC0082E00E94C5000AC040E062E082E00E9419
:1002EC00C50041E062E082E00E94C500CF91089514
:1002FC0080E00E94F6010E9466020E946C020E943D
:10030C0072020E9440020E9478020E947D020E94AA
:10031C00820285E491E00E944E0260E080E00E943F
:10032C0036012FEF87EA91E6215080409040E1F7AB
:10033C0000C0000080E00E941B0286EB91E00E944E
:10034C004E022FEF87EA91E6215080409040E1F772
:10035C0000C0000061E080E00E94360180E392E082
:10036C000E944E022FEF87EA91E621508040904088
:08037C00E1F700C00000C7CF4B
:10038400813089F028F08230C9F0833011F108956A
:100394002BB381E090E002C0880F991F6A95E2F7C1
:1003A40082278BBB089528B381E090E002C0880FB8
:1003B400991F6A95E2F7822788BB089525B381E0E7
:1003C40090E002C0880F991F6A95E2F7822785BBE7
:1003D400089522B381E090E002C0880F991F6A95C6
:0803E400E2F7822782BB0895B5
:1003EC00882319F0813089F0089541E060E082E0C3
:1003FC000E94540041E061E082E00E94540041E020
:10040C0062E082E00E945400089541E062E082E0E4
:10041C000E94540041E062E082E00E94540041E0FE
:0A042C0062E082E00E94540008958F
:10043600882319F0813089F0089540E060E082E079
:100446000E94C50040E061E082E00E94C50040E0F5
:1004560062E082E00E94C500089540E062E082E02A
:100466000E94C50040E062E082E00E94C50040E0D4
:0A04760062E082E00E94C5000895D4
:1004800081B3806281BB1DBC1CBC83EC99E097BD2D
:0C04900086BD82E88FBD8BE18EBD089513
:10049C0026B537B52F5F3F4F36952795369527955F
:0A04AC00281B390B3BBD2ABD089543
:1004B600EC010E948C020E948B02CE010E948D02EA
:0604C600CE010E94890234
:0C04CC0041E060E081E00E9454000895CF
:0C04D80041E061E081E00E9454000895C2
:0C04E40041E062E081E00E9454000895B5
:0A04F00060E081E00E94C20108955F
:0A04FA0061E081E00E94C201089554
:0A05040062E081E00E94C201089548
:04050E000C94000049
:040512000E945200F1
:02051600089546
:02051800089544
:02051A00089542
:00000001FF
