:100000000C9435000C94BC040C94BC040C94BC04FB
:100010000C94BC040C94BC040C94BC040C94BC0460
:100020000C94BC040C94BC040C94BC040C94BC0450
:100030000C94BC040C94BC040C94BC040C94BC0440
:100040000C94BC040C94BC040C94BC040C94BC0430
:100050000C94BC042F03330338033D0342034703CE
:100060004C03510300600062800011241FBECFE5E5
:10007000D8E0DEBFCDBFE4E6F0E040E017C0B591C8
:10008000A59135912591059107FD0CC0959185911C
:10009000EF01F92FE82F05900D92A217B307D9F7BA
:1000A000FE0104C01D92A217B307E1F7E936F40779
:0E00B00031F70E949D020C943E04F894FFCF9D
:1000BE000F9331B3326031BB31B33E7F31BB3AB1B6
:1000CE0038613AB9662319F0613029F007C030B5AE
:1000DE003F7730BD03C030B5306830BD2230F9F007
:1000EE0028F4222341F0213081F036C0233009F16B
:1000FE00243049F131C02AB12B7F2AB920B52B7F8C
:10010E0020BD20B52D7F20BD27C02AB12B7F2AB957
:10011E0020B52B7F20BD20B5226020BD1DC02AB189
:10012E002B7F2AB920B5246020BD20B52D7F20BDA0
:10013E0013C02AB12B7F2AB920B5246020BD20B56B
:10014E00226020BD09C02AB124602AB920B52460DE
:10015E0020BD20B5226020BD413059F018F042304C
:10016E0079F014C020B52F7D20BD20B52F7E20BD87
:10017E000DC020B5206220BD20B52F7E20BD06C04B
:10018E0020B5206220BD20B5206120BD002319F0CE
:10019E00013029F007C020B5277F20BD03C020B550
:1001AE00286020BD9C0122953295307F3227207F1A
:1001BE00322740E050E060E071E782E090E00E947C
:1001CE0015042150310929B930BD81E00F910895F0
:1001DE00BF92CF92DF92EF92FF920F931F93CF9326
:1001EE00DF93EC01B62E8A010E947D040E948F04DB
:1001FE000E94A1040E946B04BE0180E090E00E9468
:10020E00E5026B017C0120E030E040EA51E40E94FF
:10021E00B20418162CF00E949B04F801108250C0F4
:10022E0020E030E040EA51E4C701B6010E94B70475
:10023E0018167CF420E030E040E252E4C701B6012B
:10024E000E94B20418162CF00E948904F801108244
:10025E0037C020E030E040E252E4C701B6010E9410
:10026E00B70418166CF420E030E048E452E4C701FD
:10027E00B6010E94B20418161CF00E94770420C02A
:10028E00CF3FD10549F483E0F80180830E947704C3
:10029E008B2D0E94840314C0CC32D14041F481E0F6
:1002AE00F80180830E9477040E94650409C00E94B1
:1002BE0077040E9489040E949B0481E0F8018083E8
:1002CE00DF91CF911F910F91FF90EF90DF90CF9024
:0402DE00BF90089530
:1002E200442319F04130C9F10895813091F028F08A
:1002F2008230D9F0833029F108952AB381E090E069
:1003020002C0880F991F6A95E2F7809582238ABB03
:10031200089527B381E090E002C0880F991F6A9583
:10032200E2F78095822387BB089524B381E090E0B1
:1003320002C0880F991F6A95E2F78095822384BBD9
:10034200089521B381E090E002C0880F991F6A9559
:10035200E2F78095822381BB0895813089F028F0ED
:100362008230C9F0833011F108952AB381E090E020
:1003720002C0880F991F6A95E2F7822B8ABB089503
:1003820027B381E090E002C0880F991F6A95E2F7D7
:10039200822B87BB089524B381E090E002C0880FCE
:1003A200991F6A95E2F7822B84BB089521B381E0FD
:1003B20090E002C0880F991F6A95E2F7822B81BBF9
:0203C20008959C
:1003C400442319F04130C9F10895813091F028F0A7
:1003D4008230D9F0833029F108952BB381E090E085
:1003E40002C0880F991F6A95E2F7809582238BBB20
:1003F400089528B381E090E002C0880F991F6A95A0
:10040400E2F78095822388BB089525B381E090E0CC
:1004140002C0880F991F6A95E2F78095822385BBF5
:10042400089522B381E090E002C0880F991F6A9575
:10043400E2F78095822382BB0895813089F028F009
:100444008230C9F0833011F108952BB381E090E03C
:1004540002C0880F991F6A95E2F7822B8BBB08951F
:1004640028B381E090E002C0880F991F6A95E2F7F3
:10047400822B88BB089525B381E090E002C0880FE9
:10048400991F6A95E2F7822B85BB089522B381E018
:1004940090E002C0880F991F6A95E2F7822B82BB15
:0204A4000895B9
:1004A600CF93C62F882319F0813019F141C041E05E
:1004B60063E081E00E94E2018DE78CBFCC2319F056
:1004C600C13061F035C041E061E082E00E94E201A6
:1004D60040E062E082E00E94E2012AC040E061E082
:1004E60082E00E94E20141E062E082E00E94E201D5
:1004F6001FC041E062E081E00E94E201CC2319F0D6
:10050600C13061F015C041E062E082E00E94E20184
:1005160040E062E082E00E94E2010AC040E062E060
:1005260082E00E94E20141E062E082E00E94E20194
:04053600CF910895C4
:10053A000F93CF93DF9300D00F92CDB7DEB780E051
:10054A000E945C030E9471040E9483040E94950425
:10055A000E945F0460E085E00E94510400E023E00D
:10056A0040E061E080E690E00E945F008823F9F0B5
:10057A001A8219821B8260E080E00E945302CE0137
:10058A0001960E94AA0380E00E94220390936100D0
:10059A0080936000BC0180E00E942C04AE014D5F94
:1005AA005F4F60E089819A810E94EF00E8CF80E086
:1005BA0090E00F900F900F90DF91CF910F910895D7
:1005CA00E89409C097FB3EF49095809570956195E3
:1005DA007F4F8F4F9F4F9923A9F0F92F96E9BB2799
:1005EA009395F695879577956795B795F111F8CF15
:1005FA00FAF4BB0F11F460FF1BC06F5F7F4F8F4F80
:10060A009F4F16C0882311F096E911C0772321F075
:10061A009EE8872F762F05C0662371F096E8862F0D
:10062A0070E060E02AF09A95660F771F881FDAF764
:0A063A00880F9695879597F90895AB
:10064400E82F84B195B18E2F90E08830910550F554
:10065400FC01E65DFF4F0C94A70487B1887F87B93E
:1006640021C087B1887F816087B91CC087B1887F2A
:10067400826087B917C087B1887F836087B912C049
:1006840087B1887F846087B90DC087B1887F856012
:1006940087B908C087B1887F866087B903C087B1EE
:1006A400876087B986B1806486B93699FECF84B1F4
:0406B40095B108955F
:1006B800882319F08130A1F0089541E063E081E0DA
:1006C8000E94710141E061E082E00E94710141E015
:1006D80062E082E00E94710112BE8BE683BF08953A
:1006E80041E062E081E00E94710141E062E082E065
:1006F8000E94710141E062E082E00E947101089568
:10070800882319F0813091F008951CBE40E063E021
:1007180081E00E94E20140E061E082E00E94E201A3
:1007280040E062E082E00E94E201089540E062E079
:1007380081E00E94E20140E062E082E00E94E20182
:0C07480040E062E082E00E94E2010895BF
:10075400EF92FF921F93CF93DF9300D0CDB7DEB714
:100764007C0119821A82CE0101960E945804182F26
:10077400CE0102960E945804182B6A8189810E9436
:10078400AD04F70191838083812F0F900F90DF9147
:0A079400CF911F91FF90EF900895A0
:10079E00990F0008550FAA0BE0E8FEEF1616170684
:1007AE00E807F907C0F012161306E407F50798F0EC
:1007BE00621B730B840B950B39F40A2661F0232B05
:1007CE00242B252B21F408950A2609F4A140A69581
:0807DE008FEF811D811D0895BC
:1007E600A1E21A2EAA1BBB1BFD010DC0AA1FBB1F2F
:1007F600EE1FFF1FA217B307E407F50720F0A21BA1
:10080600B30BE40BF50B661F771F881F991F1A940D
:1008160069F760957095809590959B01AC01BD0137
:04082600CF01089561
:10082A00052E97FB1EF400940E94490457FD07D039
:10083A000E94F30307FC03D04EF40C94490450952C
:0E084A004095309521953F4F4F4F5F4F0895D9
:10085800882319F0813039F0089576956795769553
:1008680067956CBF089576956795769567957BBD76
:040878006ABD0895B8
:10087C00EC010E94C1040E94C004CE010E94C2047B
:06088C00CE010E94BE0433
:1008920090958095709561957F4F8F4F9F4F0895EA
:0E08A20087B1806487B986B1876A86B90895E8
:0E08B0005F9BFECF2CB1FC01208381E00895F8
:0C08BE0088B341E064E00E9471010895DD
:0C08CA0088B341E064E00E94E201089560
:0C08D60088B340E064E00E94E201089555
:0C08E20041E060E081E00E947101089597
:0C08EE0041E060E081E00E94E20108951A
:0C08FA0040E060E081E00E94E20108950F
:0C09060041E061E081E00E947101089571
:0C09120041E061E081E00E94E2010895F4
:0C091E0040E061E081E00E94E2010895E9
:0C092A0041E062E081E00E94710108954C
:0C09360041E062E081E00E94E2010895CF
:0C09420040E062E081E00E94E2010895C4
:0C094E00EE0FFF1F0590F491E02D0994BE
:0A095A0090E0982F8827862B08955F
:0A0964000E94CF0308F481E008951B
:0A096E000E94CF0308F48FEF0895F4
:040978000C940000DB
:04097C000E945D0078
:020980000895D8
:020982000895D6
:020984000895D4
:00000001FF
