:100000000C9432000C94B9040C94B9040C94B90407
:100010000C94B9040C94B9040C94B9040C94B9046C
:100020000C94B9040C94B9040C94B9040C94B9045C
:100030000C94B9040C94B9040C94B9040C94B9044C
:100040000C94B9040C94B9040C94B9040C94B9043C
:100050000C94B904240328032D03320337033C0313
:100060004103460311241FBECFE5D8E0DEBFCDBF5C
:10007000E4E6F0E040E017C0B591A59135912591F7
:10008000059107FD0CC095918591EF01F92FE82F9F
:1000900005900D92A217B307D9F7FE0104C01D9277
:1000A000A217B307E1F7E436F40731F70E949C0288
:0800B0000C944F04F894FFCFFB
:1000B8000F9331B3326031BB31B33E7F31BB3AB1BC
:1000C80038613AB9662319F0613029F007C030B5B4
:1000D8003F7730BD03C030B5306830BD2230F9F00D
:1000E80028F4222341F0213081F036C0233009F171
:1000F800243049F131C02AB12B7F2AB920B52B7F92
:1001080020BD20B52D7F20BD27C02AB12B7F2AB95D
:1001180020B52B7F20BD20B5226020BD1DC02AB18F
:100128002B7F2AB920B5246020BD20B52D7F20BDA6
:1001380013C02AB12B7F2AB920B5246020BD20B571
:10014800226020BD09C02AB124602AB920B52460E4
:1001580020BD20B5226020BD413059F018F0423052
:1001680079F014C020B52F7D20BD20B52F7E20BD8D
:100178000DC020B5206220BD20B52F7E20BD06C051
:1001880020B5206220BD20B5206120BD002319F0D4
:10019800013029F007C020B5277F20BD03C020B556
:1001A800286020BD9C0122953295307F3227207F20
:1001B800322740E050E060E071E782E090E00E9482
:1001C80009042150310929B930BD81E00F91089502
:1001D800AF92BF92CF92DF92EF92FF921F93CF938D
:1001E800DF93EC01162F5A010E9475040E948704C0
:1001F8000E94990460E0812F0E945202BE0180E0B3
:1002080090E00E94DA026B017C0120E030E040EAD5
:1002180051E40E94AF0418162CF00E949304F501D3
:10022800108250C020E030E040EA51E4C701B60136
:100238000E94B40418167CF420E030E040E252E456
:10024800C701B6010E94AF0418162CF00E94810461
:10025800F501108237C020E030E040E252E4C701E7
:10026800B6010E94B40418166CF420E030E048E4AB
:1002780052E4C701B6010E94AF0418161CF00E9490
:100288006F0420C0CF3FD10569F483E0F501808376
:100298000E9475040E9487040E949904812F0E947D
:1002A800790310C0CC32D14021F481E0F50180837C
:1002B80009C00E946F040E9481040E94930481E097
:1002C800F5018083DF91CF911F91FF90EF90DF9030
:0802D800CF90BF90AF90089594
:1002E000442319F04130C9F10895813091F028F08C
:1002F0008230D9F0833029F108952AB381E090E06B
:1003000002C0880F991F6A95E2F7809582238ABB05
:10031000089527B381E090E002C0880F991F6A9585
:10032000E2F78095822387BB089524B381E090E0B3
:1003300002C0880F991F6A95E2F78095822384BBDB
:10034000089521B381E090E002C0880F991F6A955B
:10035000E2F78095822381BB0895813089F028F0EF
:100360008230C9F0833011F108952AB381E090E022
:1003700002C0880F991F6A95E2F7822B8ABB089505
:1003800027B381E090E002C0880F991F6A95E2F7D9
:10039000822B87BB089524B381E090E002C0880FD0
:1003A000991F6A95E2F7822B84BB089521B381E0FF
:1003B00090E002C0880F991F6A95E2F7822B81BBFB
:0203C00008959E
:1003C200442319F04130C9F10895813091F028F0A9
:1003D2008230D9F0833029F108952BB381E090E087
:1003E20002C0880F991F6A95E2F7809582238BBB22
:1003F200089528B381E090E002C0880F991F6A95A2
:10040200E2F78095822388BB089525B381E090E0CE
:1004120002C0880F991F6A95E2F78095822385BBF7
:10042200089522B381E090E002C0880F991F6A9577
:10043200E2F78095822382BB0895813089F028F00B
:100442008230C9F0833011F108952BB381E090E03E
:1004520002C0880F991F6A95E2F7822B8BBB089521
:1004620028B381E090E002C0880F991F6A95E2F7F5
:10047200822B88BB089525B381E090E002C0880FEB
:10048200991F6A95E2F7822B85BB089522B381E01A
:1004920090E002C0880F991F6A95E2F7822B82BB17
:0204A2000895BB
:1004A400CF93C62F882319F0813019F141C041E060
:1004B40063E081E00E94E1018DE78CBFCC2319F059
:1004C400C13061F035C041E061E082E00E94E101A9
:1004D40040E062E082E00E94E1012AC040E061E085
:1004E40082E00E94E10141E062E082E00E94E101D9
:1004F4001FC041E062E081E00E94E101CC2319F0D9
:10050400C13061F015C041E062E082E00E94E10187
:1005140040E062E082E00E94E1010AC040E062E063
:1005240082E00E94E10141E062E082E00E94E10198
:04053400CF910895C6
:100538000F93CF93DF9300D00F92CDB7DEB780E053
:100548000E9451030E9469040E947B040E948D044A
:1005580060E085E00E94620400E023E040E061E0A2
:1005680080E690E00E945C008823B9F01B8260E07E
:1005780080E00E945202CE0101960E949E0380E014
:100588000E9417030E943404AE014D5F5F4F60E084
:1005980089819A810E94EC00EECF80E090E00F9074
:0C05A8000F900F90DF91CF910F910895FC
:1005B400E89409C097FB3EF49095809570956195F9
:1005C4007F4F8F4F9F4F9923A9F0F92F96E9BB27AF
:1005D4009395F695879577956795B795F111F8CF2B
:1005E400FAF4BB0F11F460FF1BC06F5F7F4F8F4F96
:1005F4009F4F16C0882311F096E911C0772321F08C
:100604009EE8872F762F05C0662371F096E8862F23
:1006140070E060E02AF09A95660F771F881FDAF77A
:0A062400880F9695879597F90895C1
:10062E00E82F84B195B18E2F90E08830910550F56A
:10063E00FC01E65DFF4F0C949F0487B1887F87B95C
:10064E0021C087B1887F816087B91CC087B1887F40
:10065E00826087B917C087B1887F836087B912C05F
:10066E0087B1887F846087B90DC087B1887F856028
:10067E0087B908C087B1887F866087B903C087B104
:10068E00876087B986B1806486B93699FECF84B10A
:04069E0095B1089575
:1006A200882319F08130A1F0089541E063E081E0F0
:1006B2000E94700141E061E082E00E94700141E02D
:1006C20062E082E00E94700112BE8BE683BF089551
:1006D20041E062E081E00E94700141E062E082E07C
:1006E2000E94700141E062E082E00E947001089580
:1006F200882319F0813089F0089540E063E081E0B9
:100702000E94E10140E061E082E00E94E10140E0FC
:1007120062E082E00E94E101089540E062E081E04F
:100722000E94E10140E062E082E00E94E10140E0DB
:0A07320062E082E00E94E1010895F8
:10073C00EF92FF921F93CF93DF9300D0CDB7DEB72C
:10074C007C0119821A82CE0101960E944304182F53
:10075C00CE0102960E944304182B6A8189810E9463
:10076C00AA04F70191838083812F0F900F90DF9162
:0A077C00CF911F91FF90EF900895B8
:10078600990F0008550FAA0BE0E8FEEF161617069C
:10079600E807F907C0F012161306E407F50798F004
:1007A600621B730B840B950B39F40A2661F0232B1D
:1007B600242B252B21F408950A2609F4A140A69599
:0807C6008FEF811D811D0895D4
:1007CE00A1E21A2EAA1BBB1BFD010DC0AA1FBB1F47
:1007DE00EE1FFF1FA217B307E407F50720F0A21BB9
:1007EE00B30BE40BF50B661F771F881F991F1A9426
:1007FE0069F760957095809590959B01AC01BD0150
:04080E00CF01089579
:10081200052E97FB1EF400940E945A0457FD07D040
:100822000E94E70307FC03D04EF40C945A0450953F
:0E0832004095309521953F4F4F4F5F4F0895F1
:10084000AA1BBB1B51E107C0AA1FBB1FA617B707F6
:1008500010F0A61BB70B881F991F5A95A9F7809512
:080860009095BC01CD01089543
:100868002AEFAC01249FC001259F900D11246FEF42
:0E08780073E00E942004862F0E94A5040895BC
:10088600FC0190E001C09F5F5F9902C09B3FD8F3D7
:080896008CB1808381E008951C
:10089E00EC010E94BE040E94BD04CE010E94BF0462
:0608AE00CE010E94BB0414
:1008B40090958095709561957F4F8F4F9F4F0895C8
:0E08C40087B1806487B986B1876A86B90895C6
:0C08D20041E060E081E00E9470010895A8
:0C08DE0041E060E081E00E94E10108952B
:0C08EA0040E060E081E00E94E101089520
:0C08F60041E061E081E00E947001089583
:0C09020041E061E081E00E94E101089505
:0C090E0040E061E081E00E94E1010895FA
:0C091A0041E062E081E00E94700108955D
:0C09260041E062E081E00E94E1010895E0
:0C09320040E062E081E00E94E1010895D5
:0C093E00EE0FFF1F0590F491E02D0994CE
:0A094A008CB95E9BFECF81E008959A
:0A09540090E0982F8827862B089565
:0A095E000E94C30308F481E008952D
:0A0968000E94C30308F48FEF089506
:040972000C940000E1
:040976000E945A0081
:02097A000895DE
:02097C000895DC
:02097E000895DA
:00000001FF
