:100000000C942A000C9485030C9485030C948503AE
:100010000C9485030C9485030C9485030C94850340
:100020000C9485030C9485030C9485030C94850330
:100030000C9485030C9485030C9485030C94850320
:100040000C9485030C9485030C9485030C94850310
:100050000C94850311241FBECFE5D8E0DEBFCDBFD1
:10006000E4E5F0E040E017C0B591A5913591259108
:10007000059107FD0CC095918591EF01F92FE82FAF
:1000800005900D92A217B307D9F7FE0104C01D9287
:10009000A217B307E1F7E435F40731F70E947502C0
:0800A0000C942603F894FFCF35
:1000A8000F9331B3326031BB31B33E7F31BB3AB1CC
:1000B80038613AB9662319F0613029F007C030B5C4
:1000C8003F7730BD03C030B5306830BD2230F9F01D
:1000D80028F4222341F0213081F036C0233009F181
:1000E800243049F131C02AB12B7F2AB920B52B7FA2
:1000F80020BD20B52D7F20BD27C02AB12B7F2AB96E
:1001080020B52B7F20BD20B5226020BD1DC02AB19F
:100118002B7F2AB920B5246020BD20B52D7F20BDB6
:1001280013C02AB12B7F2AB920B5246020BD20B581
:10013800226020BD09C02AB124602AB920B52460F4
:1001480020BD20B5226020BD413059F018F0423062
:1001580079F014C020B52F7D20BD20B52F7E20BD9D
:100168000DC020B5206220BD20B52F7E20BD06C061
:1001780020B5206220BD20B5206120BD002319F0E4
:10018800013029F007C020B5277F20BD03C020B566
:10019800286020BD9C0122953295307F3227207F30
:1001A800322740E050E060E071E782E090E00E9492
:1001B8000F032150310929B930BD81E00F9108950D
:1001C800CF92DF92EF92FF92CF93DF936B017C0186
:1001D800EA010E944C030E945E030E94700320E023
:1001E80030E040EA51E4C701B6010E947B031816CB
:1001F80024F00E946A0318824EC020E030E040EAF2
:1002080051E4C701B6010E948003181674F420E077
:1002180030E040E252E4C701B6010E947B031816A1
:1002280024F00E945803188236C020E030E040E2F3
:1002380052E4C701B6010E94800318166CF420E04E
:1002480030E048E452E4C701B6010E947B03181667
:100258001CF00E9446031FC020E030E04FE753E443
:10026800C701B6010E947B03811107C00E944C039D
:100278000E945E030E9470030EC020E030E046E951
:1002880053E4C701B6010E947B03882321F00E9432
:10029800460381E08883DF91CF91FF90EF90DF9054
:0402A800CF90089556
:1002AC00442319F04130C9F10895813091F028F0C0
:1002BC008230D9F0833029F108952AB381E090E09F
:1002CC0002C0880F991F6A95E2F7809582238ABB3A
:1002DC00089527B381E090E002C0880F991F6A95BA
:1002EC00E2F78095822387BB089524B381E090E0E8
:1002FC0002C0880F991F6A95E2F78095822384BB10
:10030C00089521B381E090E002C0880F991F6A958F
:10031C00E2F78095822381BB0895813089F028F023
:10032C008230C9F0833011F108952AB381E090E056
:10033C0002C0880F991F6A95E2F7822B8ABB089539
:10034C0027B381E090E002C0880F991F6A95E2F70D
:10035C00822B87BB089524B381E090E002C0880F04
:10036C00991F6A95E2F7822B84BB089521B381E033
:10037C0090E002C0880F991F6A95E2F7822B81BB2F
:02038C000895D2
:10038E00442319F04130C9F10895813091F028F0DD
:10039E008230D9F0833029F108952BB381E090E0BB
:1003AE0002C0880F991F6A95E2F7809582238BBB56
:1003BE00089528B381E090E002C0880F991F6A95D6
:1003CE00E2F78095822388BB089525B381E090E003
:1003DE0002C0880F991F6A95E2F78095822385BB2C
:1003EE00089522B381E090E002C0880F991F6A95AC
:1003FE00E2F78095822382BB0895813089F028F040
:10040E008230C9F0833011F108952BB381E090E072
:10041E0002C0880F991F6A95E2F7822B8BBB089555
:10042E0028B381E090E002C0880F991F6A95E2F729
:10043E00822B88BB089525B381E090E002C0880F1F
:10044E00991F6A95E2F7822B85BB089522B381E04E
:10045E0090E002C0880F991F6A95E2F7822B82BB4B
:02046E000895EF
:10047000E89409C097FB3EF490958095709561953E
:100480007F4F8F4F9F4F9923A9F0F92F96E9BB27F4
:100490009395F695879577956795B795F111F8CF70
:1004A000FAF4BB0F11F460FF1BC06F5F7F4F8F4FDB
:1004B0009F4F16C0882311F096E911C0772321F0D1
:1004C0009EE8872F762F05C0662371F096E8862F69
:1004D00070E060E02AF09A95660F771F881FDAF7C0
:0A04E000880F9695879597F9089507
:1004EA000F93CF93DF9300D0CDB7DEB70E944003BE
:1004FA000E9452030E94640300E023E040E061E0AE
:10050A0080E690E00E945400882389F01A82CE0186
:10051A0001960E94A402698170E080E090E00E9446
:10052A003802AE014E5F5F4F0E94E400F0CF80E0D8
:0E053A0090E00F900F90DF91CF910F910895F8
:10054800EF92FF921F93CF93DF9300D0CDB7DEB722
:100558007C0119821A82CE0101960E943903182F54
:10056800CE0102960E943903182B6A8189810E9464
:100578007603F70191838083812F0F900F90DF918D
:0A058800CF911F91FF90EF900895AE
:10059200990F0008550FAA0BE0E8FEEF1616170692
:1005A200E807F907C0F012161306E407F50798F0FA
:1005B200621B730B840B950B39F40A2661F0232B13
:1005C200242B252B21F408950A2609F4A140A6958F
:0805D2008FEF811D811D0895CA
:1005DA00A1E21A2EAA1BBB1BFD010DC0AA1FBB1F3D
:1005EA00EE1FFF1FA217B307E407F50720F0A21BAF
:1005FA00B30BE40BF50B661F771F881F991F1A941C
:10060A0069F760957095809590959B01AC01BD0145
:04061A00CF0108956F
:10061E00052E97FB1EF400940E94310357FD07D060
:10062E000E94ED0207FC03D04EF40C94310350955A
:0E063E004095309521953F4F4F4F5F4F0895E7
:10064C00EC010E948A030E948903CE010E948B0355
:06065C00CE010E9487039D
:1006620090958095709561957F4F8F4F9F4F08951C
:0E0672005F9BFECF2CB1FC01208381E0089538
:0C06800041E060E081E00E945601089516
:0C068C0041E060E081E00E94C701089599
:0C06980040E060E081E00E94C70108958E
:0C06A40041E061E081E00E9456010895F1
:0C06B00041E061E081E00E94C701089574
:0C06BC0040E061E081E00E94C701089569
:0C06C80041E062E081E00E9456010895CC
:0C06D40041E062E081E00E94C70108954F
:0C06E00040E062E081E00E94C701089544
:0A06EC0090E0982F8827862B0895D0
:0A06F6000E94C90208F481E0089593
:0A0700000E94C90208F48FEF08956B
:04070A000C9400004B
:04070E000E945200F3
:02071200089548
:02071400089546
:02071600089544
:00000001FF
