:100000000C9435000C94A8040C94A8040C94A80437
:100010000C94A8040C94A8040C94A8040C94A804B0
:100020000C94A8040C94A8040C94A8040C94A804A0
:100030000C94A8040C94A8040C94A8040C94A80490
:100040000C94A8040C94A8040C94A8040C94A80480
:100050000C94A8042D03310336033B0340034503EE
:100060004A034F0300600062800011241FBECFE5E9
:10007000D8E0DEBFCDBFE4E6F0E040E017C0B591C8
:10008000A59135912591059107FD0CC0959185911C
:10009000EF01F92FE82F05900D92A217B307D9F7BA
:1000A000FE0104C01D92A217B307E1F7E936F40779
:0E00B00031F70E949D020C943C04F894FFCF9F
:1000BE000F9331B3326031BB31B33E7F31BB3AB1B6
:1000CE0038613AB9662319F0613029F007C030B5AE
:1000DE003F7730BD03C030B5306830BD2230F9F007
:1000EE0028F4222341F0213081F036C0233009F16B
:1000FE00243049F131C02AB12B7F2AB920B52B7F8C
:10010E0020BD20B52D7F20BD27C02AB12B7F2AB957
:10011E0020B52B7F20BD20B5226020BD1DC02AB189
:10012E002B7F2AB920B5246020BD20B52D7F20BDA0
:10013E0013C02AB12B7F2AB920B5246020BD20B56B
:10014E00226020BD09C02AB124602AB920B52460DE
:10015E0020BD20B5226020BD413059F018F042304C
:10016E0079F014C020B52F7D20BD20B52F7E20BD87
:10017E000DC020B5206220BD20B52F7E20BD06C04B
:10018E0020B5206220BD20B5206120BD002319F0CE
:10019E00013029F007C020B5277F20BD03C020B550
:1001AE00286020BD9C0122953295307F3227207F1A
:1001BE00322740E050E060E071E782E090E00E947C
:1001CE0013042150310929B930BD81E00F910895F2
:1001DE00BF92CF92DF92EF92FF920F931F93CF9326
:1001EE00DF93EC01B62E8A010E9469040E947B0403
:1001FE000E948D04BE0180E090E00E94E3026B013C
:10020E007C0120E030E040EA51E40E949E04181682
:10021E002CF00E948704F801108252C020E030E0DA
:10022E0040EA51E4C701B6010E94A30418167CF4FB
:10023E0020E030E040E252E4C701B6010E949E0485
:10024E0018162CF00E947504F801108239C020E0B7
:10025E0030E040E252E4C701B6010E94A304181632
:10026E006CF420E030E048E452E4C701B6010E948D
:10027E009E0418161CF00E94630422C0CF3FD105C5
:10028E0049F483E0F80180830E9463048B2D0E9461
:10029E00820316C0CC32D14051F481E0F801808344
:1002AE000E9463040E9475040E94870409C00E9484
:1002BE0063040E9475040E94870481E0F801808324
:1002CE00DF91CF911F910F91FF90EF90DF90CF9024
:0402DE00BF90089530
:1002E200442319F04130C9F10895813091F028F08A
:1002F2008230D9F0833029F108952AB381E090E069
:1003020002C0880F991F6A95E2F7809582238ABB03
:10031200089527B381E090E002C0880F991F6A9583
:10032200E2F78095822387BB089524B381E090E0B1
:1003320002C0880F991F6A95E2F78095822384BBD9
:10034200089521B381E090E002C0880F991F6A9559
:10035200E2F78095822381BB0895813089F028F0ED
:100362008230C9F0833011F108952AB381E090E020
:1003720002C0880F991F6A95E2F7822B8ABB089503
:1003820027B381E090E002C0880F991F6A95E2F7D7
:10039200822B87BB089524B381E090E002C0880FCE
:1003A200991F6A95E2F7822B84BB089521B381E0FD
:1003B20090E002C0880F991F6A95E2F7822B81BBF9
:0203C20008959C
:1003C400442319F04130C9F10895813091F028F0A7
:1003D4008230D9F0833029F108952BB381E090E085
:1003E40002C0880F991F6A95E2F7809582238BBB20
:1003F400089528B381E090E002C0880F991F6A95A0
:10040400E2F78095822388BB089525B381E090E0CC
:1004140002C0880F991F6A95E2F78095822385BBF5
:10042400089522B381E090E002C0880F991F6A9575
:10043400E2F78095822382BB0895813089F028F009
:100444008230C9F0833011F108952BB381E090E03C
:1004540002C0880F991F6A95E2F7822B8BBB08951F
:1004640028B381E090E002C0880F991F6A95E2F7F3
:10047400822B88BB089525B381E090E002C0880FE9
:10048400991F6A95E2F7822B85BB089522B381E018
:1004940090E002C0880F991F6A95E2F7822B82BB15
:0204A4000895B9
:1004A600CF93C62F882319F0813019F141C041E05E
:1004B60063E081E00E94E2018DE78CBFCC2319F056
:1004C600C13061F035C041E061E082E00E94E201A6
:1004D60040E062E082E00E94E2012AC040E061E082
:1004E60082E00E94E20141E062E082E00E94E201D5
:1004F6001FC041E062E081E00E94E201CC2319F0D6
:10050600C13061F015C041E062E082E00E94E20184
:1005160040E062E082E00E94E2010AC040E062E060
:1005260082E00E94E20141E062E082E00E94E20194
:04053600CF910895C4
:10053A000F93CF93DF9300D00F92CDB7DEB780E051
:10054A000E945A030E945D040E946F040E94810463
:10055A0060E085E00E944F0400E023E040E061E0B3
:10056A0080E690E00E945F008823F9F01A821982DF
:10057A001B8260E080E00E945302CE0101960E9435
:10058A00A80380E00E94200390936100809360009A
:10059A00BC0180E00E942A04AE014D5F5F4F60E01B
:1005AA0089819A810E94EF00E8CF80E090E00F9065
:0C05BA000F900F90DF91CF910F910895EA
:1005C600E89409C097FB3EF49095809570956195E7
:1005D6007F4F8F4F9F4F9923A9F0F92F96E9BB279D
:1005E6009395F695879577956795B795F111F8CF19
:1005F600FAF4BB0F11F460FF1BC06F5F7F4F8F4F84
:100606009F4F16C0882311F096E911C0772321F079
:100616009EE8872F762F05C0662371F096E8862F11
:1006260070E060E02AF09A95660F771F881FDAF768
:0A063600880F9695879597F90895AF
:10064000E82F84B195B18E2F90E08830910550F558
:10065000FC01E65DFF4F0C94930487B1887F87B956
:1006600021C087B1887F816087B91CC087B1887F2E
:10067000826087B917C087B1887F836087B912C04D
:1006800087B1887F846087B90DC087B1887F856016
:1006900087B908C087B1887F866087B903C087B1F2
:1006A000876087B986B1806486B93699FECF84B1F8
:0406B00095B1089563
:1006B400882319F08130A1F0089541E063E081E0DE
:1006C4000E94710141E061E082E00E94710141E019
:1006D40062E082E00E94710112BE8BE683BF08953E
:1006E40041E062E081E00E94710141E062E082E069
:1006F4000E94710141E062E082E00E94710108956C
:10070400882319F0813091F008951CBE40E063E025
:1007140081E00E94E20140E061E082E00E94E201A7
:1007240040E062E082E00E94E201089540E062E07D
:1007340081E00E94E20140E062E082E00E94E20186
:0C07440040E062E082E00E94E2010895C3
:10075000EF92FF921F93CF93DF9300D0CDB7DEB718
:100760007C0119821A82CE0101960E945604182F2C
:10077000CE0102960E945604182B6A8189810E943C
:100780009904F70191838083812F0F900F90DF915F
:0A079000CF911F91FF90EF900895A4
:10079A00990F0008550FAA0BE0E8FEEF1616170688
:1007AA00E807F907C0F012161306E407F50798F0F0
:1007BA00621B730B840B950B39F40A2661F0232B09
:1007CA00242B252B21F408950A2609F4A140A69585
:0807DA008FEF811D811D0895C0
:1007E200A1E21A2EAA1BBB1BFD010DC0AA1FBB1F33
:1007F200EE1FFF1FA217B307E407F50720F0A21BA5
:10080200B30BE40BF50B661F771F881F991F1A9411
:1008120069F760957095809590959B01AC01BD013B
:04082200CF01089565
:10082600052E97FB1EF400940E94470457FD07D03F
:100836000E94F10307FC03D04EF40C944704509534
:0E0846004095309521953F4F4F4F5F4F0895DD
:10085400882319F0813039F0089576956795769557
:1008640067956CBF089576956795769567957BBD7A
:040874006ABD0895BC
:10087800EC010E94AD040E94AC04CE010E94AE04BB
:06088800CE010E94AA044B
:10088E0090958095709561957F4F8F4F9F4F0895EE
:0E089E0087B1806487B986B1876A86B90895EC
:0E08AC005F9BFECF2CB1FC01208381E00895FC
:0C08BA0041E060E081E00E9471010895BF
:0C08C60041E060E081E00E94E201089542
:0C08D20040E060E081E00E94E201089537
:0C08DE0041E061E081E00E94710108959A
:0C08EA0041E061E081E00E94E20108951D
:0C08F60040E061E081E00E94E201089512
:0C09020041E062E081E00E947101089574
:0C090E0041E062E081E00E94E2010895F7
:0C091A0040E062E081E00E94E2010895EC
:0C092600EE0FFF1F0590F491E02D0994E6
:0A09320090E0982F8827862B089587
:0A093C000E94CD0308F481E0089545
:0A0946000E94CD0308F48FEF08951E
:040950000C94000003
:040954000E945D00A0
:02095800089500
:02095A000895FE
:02095C000895FC
:00000001FF
